{
  "_format": "hh-sol-artifact-1",
  "contractName": "IndulgencePortal",
  "sourceName": "contracts/IndulgencePortal.sol",
  "abi": [
    {
      "inputs": [],
      "stateMutability": "nonpayable",
      "type": "constructor"
    },
    {
      "inputs": [],
      "name": "getAllSins",
      "outputs": [
        {
          "internalType": "string[]",
          "name": "message",
          "type": "string[]"
        },
        {
          "internalType": "address[]",
          "name": "sinner",
          "type": "address[]"
        },
        {
          "internalType": "uint256[]",
          "name": "timestamp",
          "type": "uint256[]"
        }
      ],
      "stateMutability": "view",
      "type": "function"
    },
    {
      "inputs": [
        {
          "internalType": "string",
          "name": "sin",
          "type": "string"
        }
      ],
      "name": "indulgeTheSin",
      "outputs": [],
      "stateMutability": "nonpayable",
      "type": "function"
    },
    {
      "inputs": [
        {
          "internalType": "uint256",
          "name": "",
          "type": "uint256"
        }
      ],
      "name": "sinners",
      "outputs": [
        {
          "internalType": "address",
          "name": "",
          "type": "address"
        }
      ],
      "stateMutability": "view",
      "type": "function"
    },
    {
      "inputs": [
        {
          "internalType": "uint256",
          "name": "",
          "type": "uint256"
        }
      ],
      "name": "sins",
      "outputs": [
        {
          "internalType": "string",
          "name": "",
          "type": "string"
        }
      ],
      "stateMutability": "view",
      "type": "function"
    },
    {
      "inputs": [
        {
          "internalType": "uint256",
          "name": "",
          "type": "uint256"
        }
      ],
      "name": "timestamps",
      "outputs": [
        {
          "internalType": "uint256",
          "name": "",
          "type": "uint256"
        }
      ],
      "stateMutability": "view",
      "type": "function"
    }
  ],
  "bytecode": "0x60806040523480156200001157600080fd5b506200005d6040518060400160405280601f81526020017f436f6d652062726f746865722c2074656c6c20757320796f75722073696e73008152506200006a60201b6200062b1760201c565b60008081905550620001fe565b6200010a8160405160240162000081919062000177565b6040516020818303038152906040527f41304fac000000000000000000000000000000000000000000000000000000007bffffffffffffffffffffffffffffffffffffffffffffffffffffffff19166020820180517bffffffffffffffffffffffffffffffffffffffffffffffffffffffff83818316178352505050506200010d60201b60201c565b50565b60008151905060006a636f6e736f6c652e6c6f679050602083016000808483855afa5050505050565b600062000143826200019b565b6200014f8185620001a6565b935062000161818560208601620001b7565b6200016c81620001ed565b840191505092915050565b6000602082019050818103600083015262000193818462000136565b905092915050565b600081519050919050565b600082825260208201905092915050565b60005b83811015620001d7578082015181840152602081019050620001ba565b83811115620001e7576000848401525b50505050565b6000601f19601f8301169050919050565b610e81806200020e6000396000f3fe608060405234801561001057600080fd5b50600436106100575760003560e01c80634d2b02cd1461005c5780638bc33af31461008c578063ab327c74146100bc578063bbbbd815146100dc578063d10d97dd1461010c575b600080fd5b6100766004803603810190610071919061084e565b610128565b6040516100839190610a9a565b60405180910390f35b6100a660048036038101906100a1919061084e565b61015b565b6040516100b39190610b23565b60405180910390f35b6100c4610173565b6040516100d393929190610ab5565b60405180910390f35b6100f660048036038101906100f1919061084e565b6104dc565b6040516101039190610b01565b60405180910390f35b6101266004803603810190610121919061080d565b61057c565b005b60026020528060005260406000206000915054906101000a900473ffffffffffffffffffffffffffffffffffffffff1681565b60036020528060005260406000206000915090505481565b606080606060005467ffffffffffffffff8111156101ba577f4e487b7100000000000000000000000000000000000000000000000000000000600052604160045260246000fd5b6040519080825280602002602001820160405280156101ed57816020015b60608152602001906001900390816101d85790505b50925060005467ffffffffffffffff811115610232577f4e487b7100000000000000000000000000000000000000000000000000000000600052604160045260246000fd5b6040519080825280602002602001820160405280156102605781602001602082028036833780820191505090505b50915060005467ffffffffffffffff8111156102a5577f4e487b7100000000000000000000000000000000000000000000000000000000600052604160045260246000fd5b6040519080825280602002602001820160405280156102d35781602001602082028036833780820191505090505b50905060005b6000548110156104d65760016000828152602001908152602001600020805461030190610cea565b80601f016020809104026020016040519081016040528092919081815260200182805461032d90610cea565b801561037a5780601f1061034f5761010080835404028352916020019161037a565b820191906000526020600020905b81548152906001019060200180831161035d57829003601f168201915b50505050508482815181106103b8577f4e487b7100000000000000000000000000000000000000000000000000000000600052603260045260246000fd5b60200260200101819052506002600082815260200190815260200160002060009054906101000a900473ffffffffffffffffffffffffffffffffffffffff16838281518110610430577f4e487b7100000000000000000000000000000000000000000000000000000000600052603260045260246000fd5b602002602001019073ffffffffffffffffffffffffffffffffffffffff16908173ffffffffffffffffffffffffffffffffffffffff168152505060036000828152602001908152602001600020548282815181106104b7577f4e487b7100000000000000000000000000000000000000000000000000000000600052603260045260246000fd5b60200260200101818152505080806104ce90610d4d565b9150506102d9565b50909192565b600160205280600052604060002060009150905080546104fb90610cea565b80601f016020809104026020016040519081016040528092919081815260200182805461052790610cea565b80156105745780601f1061054957610100808354040283529160200191610574565b820191906000526020600020905b81548152906001019060200180831161055757829003601f168201915b505050505081565b80600160008054815260200190815260200160002090805190602001906105a49291906106ed565b5033600260008054815260200190815260200160002060006101000a81548173ffffffffffffffffffffffffffffffffffffffff021916908373ffffffffffffffffffffffffffffffffffffffff1602179055504260036000805481526020019081526020016000208190555060008081548092919061062390610d4d565b919050555050565b6106c18160405160240161063f9190610b01565b6040516020818303038152906040527f41304fac000000000000000000000000000000000000000000000000000000007bffffffffffffffffffffffffffffffffffffffffffffffffffffffff19166020820180517bffffffffffffffffffffffffffffffffffffffffffffffffffffffff83818316178352505050506106c4565b50565b60008151905060006a636f6e736f6c652e6c6f679050602083016000808483855afa5050505050565b8280546106f990610cea565b90600052602060002090601f01602090048101928261071b5760008555610762565b82601f1061073457805160ff1916838001178555610762565b82800160010185558215610762579182015b82811115610761578251825591602001919060010190610746565b5b50905061076f9190610773565b5090565b5b8082111561078c576000816000905550600101610774565b5090565b60006107a361079e84610b63565b610b3e565b9050828152602081018484840111156107bb57600080fd5b6107c6848285610ca8565b509392505050565b600082601f8301126107df57600080fd5b81356107ef848260208601610790565b91505092915050565b60008135905061080781610e34565b92915050565b60006020828403121561081f57600080fd5b600082013567ffffffffffffffff81111561083957600080fd5b610845848285016107ce565b91505092915050565b60006020828403121561086057600080fd5b600061086e848285016107f8565b91505092915050565b600061088383836108bb565b60208301905092915050565b600061089b8383610a0a565b905092915050565b60006108af8383610a7c565b60208301905092915050565b6108c481610c6c565b82525050565b6108d381610c6c565b82525050565b60006108e482610bc4565b6108ee8185610c17565b93506108f983610b94565b8060005b8381101561092a5781516109118882610877565b975061091c83610bf0565b9250506001810190506108fd565b5085935050505092915050565b600061094282610bcf565b61094c8185610c28565b93508360208202850161095e85610ba4565b8060005b8581101561099a578484038952815161097b858261088f565b945061098683610bfd565b925060208a01995050600181019050610962565b50829750879550505050505092915050565b60006109b782610bda565b6109c18185610c39565b93506109cc83610bb4565b8060005b838110156109fd5781516109e488826108a3565b97506109ef83610c0a565b9250506001810190506109d0565b5085935050505092915050565b6000610a1582610be5565b610a1f8185610c4a565b9350610a2f818560208601610cb7565b610a3881610e23565b840191505092915050565b6000610a4e82610be5565b610a588185610c5b565b9350610a68818560208601610cb7565b610a7181610e23565b840191505092915050565b610a8581610c9e565b82525050565b610a9481610c9e565b82525050565b6000602082019050610aaf60008301846108ca565b92915050565b60006060820190508181036000830152610acf8186610937565b90508181036020830152610ae381856108d9565b90508181036040830152610af781846109ac565b9050949350505050565b60006020820190508181036000830152610b1b8184610a43565b905092915050565b6000602082019050610b386000830184610a8b565b92915050565b6000610b48610b59565b9050610b548282610d1c565b919050565b6000604051905090565b600067ffffffffffffffff821115610b7e57610b7d610df4565b5b610b8782610e23565b9050602081019050919050565b6000819050602082019050919050565b6000819050602082019050919050565b6000819050602082019050919050565b600081519050919050565b600081519050919050565b600081519050919050565b600081519050919050565b6000602082019050919050565b6000602082019050919050565b6000602082019050919050565b600082825260208201905092915050565b600082825260208201905092915050565b600082825260208201905092915050565b600082825260208201905092915050565b600082825260208201905092915050565b6000610c7782610c7e565b9050919050565b600073ffffffffffffffffffffffffffffffffffffffff82169050919050565b6000819050919050565b82818337600083830152505050565b60005b83811015610cd5578082015181840152602081019050610cba565b83811115610ce4576000848401525b50505050565b60006002820490506001821680610d0257607f821691505b60208210811415610d1657610d15610dc5565b5b50919050565b610d2582610e23565b810181811067ffffffffffffffff82111715610d4457610d43610df4565b5b80604052505050565b6000610d5882610c9e565b91507fffffffffffffffffffffffffffffffffffffffffffffffffffffffffffffffff821415610d8b57610d8a610d96565b5b600182019050919050565b7f4e487b7100000000000000000000000000000000000000000000000000000000600052601160045260246000fd5b7f4e487b7100000000000000000000000000000000000000000000000000000000600052602260045260246000fd5b7f4e487b7100000000000000000000000000000000000000000000000000000000600052604160045260246000fd5b6000601f19601f8301169050919050565b610e3d81610c9e565b8114610e4857600080fd5b5056fea26469706673582212201093eb850321780650ce62cf5df33996721cb28a4289fbec6af57f4dd606261964736f6c63430008040033",
  "linkReferences": {},
  "deployedLinkReferences": {}
}