{
  "_format": "hh-sol-artifact-1",
  "contractName": "IndulgencePortal",
  "sourceName": "contracts/IndulgencePortal.sol",
  "abi": [
    {
      "inputs": [],
      "stateMutability": "payable",
      "type": "constructor"
    },
    {
      "anonymous": false,
      "inputs": [
        {
          "indexed": true,
          "internalType": "address",
          "name": "from",
          "type": "address"
        },
        {
          "indexed": false,
          "internalType": "uint256",
          "name": "timestamp",
          "type": "uint256"
        },
        {
          "indexed": false,
          "internalType": "string",
          "name": "message",
          "type": "string"
        }
      ],
      "name": "NewSin",
      "type": "event"
    },
    {
      "inputs": [
        {
          "internalType": "string",
          "name": "_sin",
          "type": "string"
        }
      ],
      "name": "confess",
      "outputs": [],
      "stateMutability": "nonpayable",
      "type": "function"
    },
    {
      "inputs": [],
      "name": "getAllSins",
      "outputs": [
        {
          "components": [
            {
              "internalType": "address",
              "name": "sinner",
              "type": "address"
            },
            {
              "internalType": "string",
              "name": "sin",
              "type": "string"
            },
            {
              "internalType": "uint256",
              "name": "timestamp",
              "type": "uint256"
            }
          ],
          "internalType": "struct IndulgencePortal.Sin[]",
          "name": "",
          "type": "tuple[]"
        }
      ],
      "stateMutability": "view",
      "type": "function"
    },
    {
      "inputs": [],
      "name": "getTotalSins",
      "outputs": [
        {
          "internalType": "uint256",
          "name": "",
          "type": "uint256"
        }
      ],
      "stateMutability": "view",
      "type": "function"
    },
    {
      "inputs": [
        {
          "internalType": "address",
          "name": "",
          "type": "address"
        }
      ],
      "name": "lastSinConfessed",
      "outputs": [
        {
          "internalType": "uint256",
          "name": "",
          "type": "uint256"
        }
      ],
      "stateMutability": "view",
      "type": "function"
    }
  ],
  "bytecode": "0x60806040526200004f6040518060400160405280601f81526020017f436f6d652062726f746865722c2074656c6c20757320796f75722073696e73008152506200005c60201b620005bf1760201c565b60008081905550620001f0565b620000fc8160405160240162000073919062000169565b6040516020818303038152906040527f41304fac000000000000000000000000000000000000000000000000000000007bffffffffffffffffffffffffffffffffffffffffffffffffffffffff19166020820180517bffffffffffffffffffffffffffffffffffffffffffffffffffffffff8381831617835250505050620000ff60201b60201c565b50565b60008151905060006a636f6e736f6c652e6c6f679050602083016000808483855afa5050505050565b600062000135826200018d565b62000141818562000198565b935062000153818560208601620001a9565b6200015e81620001df565b840191505092915050565b6000602082019050818103600083015262000185818462000128565b905092915050565b600081519050919050565b600082825260208201905092915050565b60005b83811015620001c9578082015181840152602081019050620001ac565b83811115620001d9576000848401525b50505050565b6000601f19601f8301169050919050565b61103580620002006000396000f3fe608060405234801561001057600080fd5b506004361061004c5760003560e01c806304141e60146100515780631e1414c91461006d578063ab327c741461009d578063f5ae8da5146100bb575b600080fd5b61006b600480360381019061006691906107ca565b6100d9565b005b610087600480360381019061008291906107a1565b61044d565b6040516100949190610b0b565b60405180910390f35b6100a5610465565b6040516100b29190610a47565b60405180910390f35b6100c36105b6565b6040516100d09190610b0b565b60405180910390f35b600081511161011d576040517f08c379a000000000000000000000000000000000000000000000000000000000815260040161011490610aeb565b60405180910390fd5b42610384600260003373ffffffffffffffffffffffffffffffffffffffff1673ffffffffffffffffffffffffffffffffffffffff1681526020019081526020016000205461016b9190610c1d565b106101ab576040517f08c379a00000000000000000000000000000000000000000000000000000000081526004016101a290610acb565b60405180910390fd5b42600260003373ffffffffffffffffffffffffffffffffffffffff1673ffffffffffffffffffffffffffffffffffffffff1681526020019081526020016000208190555060008081548092919061020190610d88565b9190505550600160405180606001604052803373ffffffffffffffffffffffffffffffffffffffff16815260200183815260200142815250908060018154018082558091505060019003906000526020600020906003020160009091909190915060008201518160000160006101000a81548173ffffffffffffffffffffffffffffffffffffffff021916908373ffffffffffffffffffffffffffffffffffffffff16021790555060208201518160010190805190602001906102c5929190610681565b506040820151816002015550503373ffffffffffffffffffffffffffffffffffffffff167f9e6d20f86c60b8fc99053b76ad79ee1166b329a5fde7a82393f75024e66f8f7f428360405161031a929190610b26565b60405180910390a26000600e6001436103339190610c73565b4060001c6103419190610dd1565b9050600d811415610449576000655af3107a400090504781111561039a576040517f08c379a000000000000000000000000000000000000000000000000000000000815260040161039190610a8b565b60405180910390fd5b60003373ffffffffffffffffffffffffffffffffffffffff16826040516103c090610a32565b60006040518083038185875af1925050503d80600081146103fd576040519150601f19603f3d011682016040523d82523d6000602084013e610402565b606091505b5050905080610446576040517f08c379a000000000000000000000000000000000000000000000000000000000815260040161043d90610aab565b60405180910390fd5b50505b5050565b60026020528060005260406000206000915090505481565b60606001805480602002602001604051908101604052809291908181526020016000905b828210156105ad57838290600052602060002090600302016040518060600160405290816000820160009054906101000a900473ffffffffffffffffffffffffffffffffffffffff1673ffffffffffffffffffffffffffffffffffffffff1673ffffffffffffffffffffffffffffffffffffffff16815260200160018201805461051290610d25565b80601f016020809104026020016040519081016040528092919081815260200182805461053e90610d25565b801561058b5780601f106105605761010080835404028352916020019161058b565b820191906000526020600020905b81548152906001019060200180831161056e57829003601f168201915b5050505050815260200160028201548152505081526020019060010190610489565b50505050905090565b60008054905090565b610655816040516024016105d39190610a69565b6040516020818303038152906040527f41304fac000000000000000000000000000000000000000000000000000000007bffffffffffffffffffffffffffffffffffffffffffffffffffffffff19166020820180517bffffffffffffffffffffffffffffffffffffffffffffffffffffffff8381831617835250505050610658565b50565b60008151905060006a636f6e736f6c652e6c6f679050602083016000808483855afa5050505050565b82805461068d90610d25565b90600052602060002090601f0160209004810192826106af57600085556106f6565b82601f106106c857805160ff19168380011785556106f6565b828001600101855582156106f6579182015b828111156106f55782518255916020019190600101906106da565b5b5090506107039190610707565b5090565b5b80821115610720576000816000905550600101610708565b5090565b600061073761073284610b7b565b610b56565b90508281526020810184848401111561074f57600080fd5b61075a848285610ce3565b509392505050565b60008135905061077181610fe8565b92915050565b600082601f83011261078857600080fd5b8135610798848260208601610724565b91505092915050565b6000602082840312156107b357600080fd5b60006107c184828501610762565b91505092915050565b6000602082840312156107dc57600080fd5b600082013567ffffffffffffffff8111156107f657600080fd5b61080284828501610777565b91505092915050565b600061081783836109c4565b905092915050565b61082881610ca7565b82525050565b600061083982610bbc565b6108438185610bdf565b93508360208202850161085585610bac565b8060005b858110156108915784840389528151610872858261080b565b945061087d83610bd2565b925060208a01995050600181019050610859565b50829750879550505050505092915050565b60006108ae82610bc7565b6108b88185610bfb565b93506108c8818560208601610cf2565b6108d181610ebe565b840191505092915050565b60006108e782610bc7565b6108f18185610c0c565b9350610901818560208601610cf2565b61090a81610ebe565b840191505092915050565b6000610922603483610c0c565b915061092d82610ecf565b604082019050919050565b6000610945602783610c0c565b915061095082610f1e565b604082019050919050565b6000610968600883610c0c565b915061097382610f6d565b602082019050919050565b600061098b602883610c0c565b915061099682610f96565b604082019050919050565b60006109ae600083610bf0565b91506109b982610fe5565b600082019050919050565b60006060830160008301516109dc600086018261081f565b50602083015184820360208601526109f482826108a3565b9150506040830151610a096040860182610a14565b508091505092915050565b610a1d81610cd9565b82525050565b610a2c81610cd9565b82525050565b6000610a3d826109a1565b9150819050919050565b60006020820190508181036000830152610a61818461082e565b905092915050565b60006020820190508181036000830152610a8381846108dc565b905092915050565b60006020820190508181036000830152610aa481610915565b9050919050565b60006020820190508181036000830152610ac481610938565b9050919050565b60006020820190508181036000830152610ae48161095b565b9050919050565b60006020820190508181036000830152610b048161097e565b9050919050565b6000602082019050610b206000830184610a23565b92915050565b6000604082019050610b3b6000830185610a23565b8181036020830152610b4d81846108dc565b90509392505050565b6000610b60610b71565b9050610b6c8282610d57565b919050565b6000604051905090565b600067ffffffffffffffff821115610b9657610b95610e8f565b5b610b9f82610ebe565b9050602081019050919050565b6000819050602082019050919050565b600081519050919050565b600081519050919050565b6000602082019050919050565b600082825260208201905092915050565b600081905092915050565b600082825260208201905092915050565b600082825260208201905092915050565b6000610c2882610cd9565b9150610c3383610cd9565b9250827fffffffffffffffffffffffffffffffffffffffffffffffffffffffffffffffff03821115610c6857610c67610e02565b5b828201905092915050565b6000610c7e82610cd9565b9150610c8983610cd9565b925082821015610c9c57610c9b610e02565b5b828203905092915050565b6000610cb282610cb9565b9050919050565b600073ffffffffffffffffffffffffffffffffffffffff82169050919050565b6000819050919050565b82818337600083830152505050565b60005b83811015610d10578082015181840152602081019050610cf5565b83811115610d1f576000848401525b50505050565b60006002820490506001821680610d3d57607f821691505b60208210811415610d5157610d50610e60565b5b50919050565b610d6082610ebe565b810181811067ffffffffffffffff82111715610d7f57610d7e610e8f565b5b80604052505050565b6000610d9382610cd9565b91507fffffffffffffffffffffffffffffffffffffffffffffffffffffffffffffffff821415610dc657610dc5610e02565b5b600182019050919050565b6000610ddc82610cd9565b9150610de783610cd9565b925082610df757610df6610e31565b5b828206905092915050565b7f4e487b7100000000000000000000000000000000000000000000000000000000600052601160045260246000fd5b7f4e487b7100000000000000000000000000000000000000000000000000000000600052601260045260246000fd5b7f4e487b7100000000000000000000000000000000000000000000000000000000600052602260045260246000fd5b7f4e487b7100000000000000000000000000000000000000000000000000000000600052604160045260246000fd5b6000601f19601f8301169050919050565b7f547279696e6720746f207769746864726177206d6f7265206d6f6e657920746860008201527f616e2074686520636f6e7472616374206861732e000000000000000000000000602082015250565b7f4661696c656420746f207769746864726177206d6f6e65792066726f6d20636f60008201527f6e74726163742e00000000000000000000000000000000000000000000000000602082015250565b7f576169742031336d000000000000000000000000000000000000000000000000600082015250565b7f596f752073686f756c6420656e74657220796f75722073696e20666f7220636f60008201527f6e66657373696f6e000000000000000000000000000000000000000000000000602082015250565b50565b610ff181610ca7565b8114610ffc57600080fd5b5056fea2646970667358221220d7168e9083734f26153b04b52afd59ead0444e8803410f672159e7705386076764736f6c63430008040033",
  "linkReferences": {},
  "deployedLinkReferences": {}
}