{
  "_format": "hh-sol-artifact-1",
  "contractName": "IndulgencePortal",
  "sourceName": "contracts/IndulgencePortal.sol",
  "abi": [
    {
      "inputs": [],
      "stateMutability": "nonpayable",
      "type": "constructor"
    },
    {
      "inputs": [
        {
          "internalType": "string",
          "name": "sin",
          "type": "string"
        }
      ],
      "name": "confess",
      "outputs": [],
      "stateMutability": "nonpayable",
      "type": "function"
    },
    {
      "inputs": [],
      "name": "getAllSins",
      "outputs": [
        {
          "internalType": "string[]",
          "name": "message",
          "type": "string[]"
        },
        {
          "internalType": "address[]",
          "name": "sinner",
          "type": "address[]"
        },
        {
          "internalType": "uint256[]",
          "name": "timestamp",
          "type": "uint256[]"
        }
      ],
      "stateMutability": "view",
      "type": "function"
    },
    {
      "inputs": [
        {
          "internalType": "uint256",
          "name": "",
          "type": "uint256"
        }
      ],
      "name": "sinners",
      "outputs": [
        {
          "internalType": "address",
          "name": "",
          "type": "address"
        }
      ],
      "stateMutability": "view",
      "type": "function"
    },
    {
      "inputs": [
        {
          "internalType": "uint256",
          "name": "",
          "type": "uint256"
        }
      ],
      "name": "sins",
      "outputs": [
        {
          "internalType": "string",
          "name": "",
          "type": "string"
        }
      ],
      "stateMutability": "view",
      "type": "function"
    },
    {
      "inputs": [
        {
          "internalType": "uint256",
          "name": "",
          "type": "uint256"
        }
      ],
      "name": "timestamps",
      "outputs": [
        {
          "internalType": "uint256",
          "name": "",
          "type": "uint256"
        }
      ],
      "stateMutability": "view",
      "type": "function"
    }
  ],
  "bytecode": "0x60806040523480156200001157600080fd5b506200005d6040518060400160405280601f81526020017f436f6d652062726f746865722c2074656c6c20757320796f75722073696e73008152506200006a60201b6200066f1760201c565b60008081905550620001fe565b6200010a8160405160240162000081919062000177565b6040516020818303038152906040527f41304fac000000000000000000000000000000000000000000000000000000007bffffffffffffffffffffffffffffffffffffffffffffffffffffffff19166020820180517bffffffffffffffffffffffffffffffffffffffffffffffffffffffff83818316178352505050506200010d60201b60201c565b50565b60008151905060006a636f6e736f6c652e6c6f679050602083016000808483855afa5050505050565b600062000143826200019b565b6200014f8185620001a6565b935062000161818560208601620001b7565b6200016c81620001ed565b840191505092915050565b6000602082019050818103600083015262000193818462000136565b905092915050565b600081519050919050565b600082825260208201905092915050565b60005b83811015620001d7578082015181840152602081019050620001ba565b83811115620001e7576000848401525b50505050565b6000601f19601f8301169050919050565b610f57806200020e6000396000f3fe608060405234801561001057600080fd5b50600436106100575760003560e01c806304141e601461005c5780634d2b02cd146100785780638bc33af3146100a8578063ab327c74146100d8578063bbbbd815146100f8575b600080fd5b61007660048036038101906100719190610851565b610128565b005b610092600480360381019061008d9190610892565b61021b565b60405161009f9190610b01565b60405180910390f35b6100c260048036038101906100bd9190610892565b61024e565b6040516100cf9190610baa565b60405180910390f35b6100e0610266565b6040516100ef93929190610b1c565b60405180910390f35b610112600480360381019061010d9190610892565b6105cf565b60405161011f9190610b68565b60405180910390f35b600081511161016c576040517f08c379a000000000000000000000000000000000000000000000000000000000815260040161016390610b8a565b60405180910390fd5b8060016000805481526020019081526020016000209080519060200190610194929190610731565b5033600260008054815260200190815260200160002060006101000a81548173ffffffffffffffffffffffffffffffffffffffff021916908373ffffffffffffffffffffffffffffffffffffffff1602179055504260036000805481526020019081526020016000208190555060008081548092919061021390610dd4565b919050555050565b60026020528060005260406000206000915054906101000a900473ffffffffffffffffffffffffffffffffffffffff1681565b60036020528060005260406000206000915090505481565b606080606060005467ffffffffffffffff8111156102ad577f4e487b7100000000000000000000000000000000000000000000000000000000600052604160045260246000fd5b6040519080825280602002602001820160405280156102e057816020015b60608152602001906001900390816102cb5790505b50925060005467ffffffffffffffff811115610325577f4e487b7100000000000000000000000000000000000000000000000000000000600052604160045260246000fd5b6040519080825280602002602001820160405280156103535781602001602082028036833780820191505090505b50915060005467ffffffffffffffff811115610398577f4e487b7100000000000000000000000000000000000000000000000000000000600052604160045260246000fd5b6040519080825280602002602001820160405280156103c65781602001602082028036833780820191505090505b50905060005b6000548110156105c9576001600082815260200190815260200160002080546103f490610d71565b80601f016020809104026020016040519081016040528092919081815260200182805461042090610d71565b801561046d5780601f106104425761010080835404028352916020019161046d565b820191906000526020600020905b81548152906001019060200180831161045057829003601f168201915b50505050508482815181106104ab577f4e487b7100000000000000000000000000000000000000000000000000000000600052603260045260246000fd5b60200260200101819052506002600082815260200190815260200160002060009054906101000a900473ffffffffffffffffffffffffffffffffffffffff16838281518110610523577f4e487b7100000000000000000000000000000000000000000000000000000000600052603260045260246000fd5b602002602001019073ffffffffffffffffffffffffffffffffffffffff16908173ffffffffffffffffffffffffffffffffffffffff168152505060036000828152602001908152602001600020548282815181106105aa577f4e487b7100000000000000000000000000000000000000000000000000000000600052603260045260246000fd5b60200260200101818152505080806105c190610dd4565b9150506103cc565b50909192565b600160205280600052604060002060009150905080546105ee90610d71565b80601f016020809104026020016040519081016040528092919081815260200182805461061a90610d71565b80156106675780601f1061063c57610100808354040283529160200191610667565b820191906000526020600020905b81548152906001019060200180831161064a57829003601f168201915b505050505081565b610705816040516024016106839190610b68565b6040516020818303038152906040527f41304fac000000000000000000000000000000000000000000000000000000007bffffffffffffffffffffffffffffffffffffffffffffffffffffffff19166020820180517bffffffffffffffffffffffffffffffffffffffffffffffffffffffff8381831617835250505050610708565b50565b60008151905060006a636f6e736f6c652e6c6f679050602083016000808483855afa5050505050565b82805461073d90610d71565b90600052602060002090601f01602090048101928261075f57600085556107a6565b82601f1061077857805160ff19168380011785556107a6565b828001600101855582156107a6579182015b828111156107a557825182559160200191906001019061078a565b5b5090506107b391906107b7565b5090565b5b808211156107d05760008160009055506001016107b8565b5090565b60006107e76107e284610bea565b610bc5565b9050828152602081018484840111156107ff57600080fd5b61080a848285610d2f565b509392505050565b600082601f83011261082357600080fd5b81356108338482602086016107d4565b91505092915050565b60008135905061084b81610f0a565b92915050565b60006020828403121561086357600080fd5b600082013567ffffffffffffffff81111561087d57600080fd5b61088984828501610812565b91505092915050565b6000602082840312156108a457600080fd5b60006108b28482850161083c565b91505092915050565b60006108c783836108ff565b60208301905092915050565b60006108df8383610a4e565b905092915050565b60006108f38383610ae3565b60208301905092915050565b61090881610cf3565b82525050565b61091781610cf3565b82525050565b600061092882610c4b565b6109328185610c9e565b935061093d83610c1b565b8060005b8381101561096e57815161095588826108bb565b975061096083610c77565b925050600181019050610941565b5085935050505092915050565b600061098682610c56565b6109908185610caf565b9350836020820285016109a285610c2b565b8060005b858110156109de57848403895281516109bf85826108d3565b94506109ca83610c84565b925060208a019950506001810190506109a6565b50829750879550505050505092915050565b60006109fb82610c61565b610a058185610cc0565b9350610a1083610c3b565b8060005b83811015610a41578151610a2888826108e7565b9750610a3383610c91565b925050600181019050610a14565b5085935050505092915050565b6000610a5982610c6c565b610a638185610cd1565b9350610a73818560208601610d3e565b610a7c81610eaa565b840191505092915050565b6000610a9282610c6c565b610a9c8185610ce2565b9350610aac818560208601610d3e565b610ab581610eaa565b840191505092915050565b6000610acd602883610ce2565b9150610ad882610ebb565b604082019050919050565b610aec81610d25565b82525050565b610afb81610d25565b82525050565b6000602082019050610b16600083018461090e565b92915050565b60006060820190508181036000830152610b36818661097b565b90508181036020830152610b4a818561091d565b90508181036040830152610b5e81846109f0565b9050949350505050565b60006020820190508181036000830152610b828184610a87565b905092915050565b60006020820190508181036000830152610ba381610ac0565b9050919050565b6000602082019050610bbf6000830184610af2565b92915050565b6000610bcf610be0565b9050610bdb8282610da3565b919050565b6000604051905090565b600067ffffffffffffffff821115610c0557610c04610e7b565b5b610c0e82610eaa565b9050602081019050919050565b6000819050602082019050919050565b6000819050602082019050919050565b6000819050602082019050919050565b600081519050919050565b600081519050919050565b600081519050919050565b600081519050919050565b6000602082019050919050565b6000602082019050919050565b6000602082019050919050565b600082825260208201905092915050565b600082825260208201905092915050565b600082825260208201905092915050565b600082825260208201905092915050565b600082825260208201905092915050565b6000610cfe82610d05565b9050919050565b600073ffffffffffffffffffffffffffffffffffffffff82169050919050565b6000819050919050565b82818337600083830152505050565b60005b83811015610d5c578082015181840152602081019050610d41565b83811115610d6b576000848401525b50505050565b60006002820490506001821680610d8957607f821691505b60208210811415610d9d57610d9c610e4c565b5b50919050565b610dac82610eaa565b810181811067ffffffffffffffff82111715610dcb57610dca610e7b565b5b80604052505050565b6000610ddf82610d25565b91507fffffffffffffffffffffffffffffffffffffffffffffffffffffffffffffffff821415610e1257610e11610e1d565b5b600182019050919050565b7f4e487b7100000000000000000000000000000000000000000000000000000000600052601160045260246000fd5b7f4e487b7100000000000000000000000000000000000000000000000000000000600052602260045260246000fd5b7f4e487b7100000000000000000000000000000000000000000000000000000000600052604160045260246000fd5b6000601f19601f8301169050919050565b7f596f752073686f756c6420656e74657220796f75722073696e20666f7220636f60008201527f6e66657373696f6e000000000000000000000000000000000000000000000000602082015250565b610f1381610d25565b8114610f1e57600080fd5b5056fea264697066735822122036d4f4bcb09a0cc4b07c5f1ae62f26119f29f0ec6970d6184a85ac50b0dc216b64736f6c63430008040033",
  "linkReferences": {},
  "deployedLinkReferences": {}
}