{
  "_format": "hh-sol-artifact-1",
  "contractName": "IndulgencePortal",
  "sourceName": "contracts/IndulgencePortal.sol",
  "abi": [
    {
      "inputs": [],
      "stateMutability": "nonpayable",
      "type": "constructor"
    },
    {
      "inputs": [],
      "name": "getAllSins",
      "outputs": [
        {
          "internalType": "address[]",
          "name": "users",
          "type": "address[]"
        },
        {
          "internalType": "string[]",
          "name": "messages",
          "type": "string[]"
        },
        {
          "internalType": "uint256[]",
          "name": "timestamps",
          "type": "uint256[]"
        }
      ],
      "stateMutability": "view",
      "type": "function"
    },
    {
      "inputs": [
        {
          "internalType": "string",
          "name": "sin",
          "type": "string"
        }
      ],
      "name": "indulgeTheSin",
      "outputs": [],
      "stateMutability": "nonpayable",
      "type": "function"
    },
    {
      "inputs": [
        {
          "internalType": "uint256",
          "name": "",
          "type": "uint256"
        }
      ],
      "name": "siners",
      "outputs": [
        {
          "internalType": "address",
          "name": "",
          "type": "address"
        }
      ],
      "stateMutability": "view",
      "type": "function"
    },
    {
      "inputs": [
        {
          "internalType": "address",
          "name": "",
          "type": "address"
        }
      ],
      "name": "sins",
      "outputs": [
        {
          "internalType": "string",
          "name": "",
          "type": "string"
        }
      ],
      "stateMutability": "view",
      "type": "function"
    },
    {
      "inputs": [
        {
          "internalType": "string",
          "name": "",
          "type": "string"
        }
      ],
      "name": "sinsTimestamps",
      "outputs": [
        {
          "internalType": "uint256",
          "name": "",
          "type": "uint256"
        }
      ],
      "stateMutability": "view",
      "type": "function"
    }
  ],
  "bytecode": "0x60806040523480156200001157600080fd5b506200005d6040518060400160405280601f81526020017f436f6d652062726f746865722c2074656c6c20757320796f75722073696e73008152506200006a60201b620008cd1760201c565b60008081905550620001fe565b6200010a8160405160240162000081919062000177565b6040516020818303038152906040527f41304fac000000000000000000000000000000000000000000000000000000007bffffffffffffffffffffffffffffffffffffffffffffffffffffffff19166020820180517bffffffffffffffffffffffffffffffffffffffffffffffffffffffff83818316178352505050506200010d60201b60201c565b50565b60008151905060006a636f6e736f6c652e6c6f679050602083016000808483855afa5050505050565b600062000143826200019b565b6200014f8185620001a6565b935062000161818560208601620001b7565b6200016c81620001ed565b840191505092915050565b6000602082019050818103600083015262000193818462000136565b905092915050565b600081519050919050565b600082825260208201905092915050565b60005b83811015620001d7578082015181840152602081019050620001ba565b83811115620001e7576000848401525b50505050565b6000601f19601f8301169050919050565b61135a806200020e6000396000f3fe608060405234801561001057600080fd5b50600436106100575760003560e01c80633a292af71461005c578063ab327c741461008c578063d10d97dd146100ac578063dc7797d7146100c8578063fff4fea2146100f8575b600080fd5b61007660048036038101906100719190610bcd565b610128565b6040516100839190610ef7565b60405180910390f35b61009461015b565b6040516100a393929190610f12565b60405180910390f35b6100c660048036038101906100c19190610b8c565b61071b565b005b6100e260048036038101906100dd9190610b8c565b6107ff565b6040516100ef9190610fc5565b60405180910390f35b610112600480360381019061010d9190610b63565b61082d565b60405161011f9190610f5e565b60405180910390f35b60016020528060005260406000206000915054906101000a900473ffffffffffffffffffffffffffffffffffffffff1681565b60608060606000805467ffffffffffffffff8111156101a3577f4e487b7100000000000000000000000000000000000000000000000000000000600052604160045260246000fd5b6040519080825280602002602001820160405280156101d15781602001602082028036833780820191505090505b5090506000805467ffffffffffffffff811115610217577f4e487b7100000000000000000000000000000000000000000000000000000000600052604160045260246000fd5b60405190808252806020026020018201604052801561024a57816020015b60608152602001906001900390816102355790505b5090506000805467ffffffffffffffff811115610290577f4e487b7100000000000000000000000000000000000000000000000000000000600052604160045260246000fd5b6040519080825280602002602001820160405280156102be5781602001602082028036833780820191505090505b50905060005b6000548110156107095761043b6040518060400160405280600b81526020017f25732066726f6d203a2573000000000000000000000000000000000000000000815250600260006001600086815260200190815260200160002060009054906101000a900473ffffffffffffffffffffffffffffffffffffffff1673ffffffffffffffffffffffffffffffffffffffff1673ffffffffffffffffffffffffffffffffffffffff1681526020019081526020016000208054610384906111ac565b80601f01602080910402602001604051908101604052809291908181526020018280546103b0906111ac565b80156103fd5780601f106103d2576101008083540402835291602001916103fd565b820191906000526020600020905b8154815290600101906020018083116103e057829003601f168201915b50505050506001600085815260200190815260200160002060009054906101000a900473ffffffffffffffffffffffffffffffffffffffff16610966565b6001600082815260200190815260200160002060009054906101000a900473ffffffffffffffffffffffffffffffffffffffff168482815181106104a8577f4e487b7100000000000000000000000000000000000000000000000000000000600052603260045260246000fd5b602002602001019073ffffffffffffffffffffffffffffffffffffffff16908173ffffffffffffffffffffffffffffffffffffffff1681525050600260006001600084815260200190815260200160002060009054906101000a900473ffffffffffffffffffffffffffffffffffffffff1673ffffffffffffffffffffffffffffffffffffffff1673ffffffffffffffffffffffffffffffffffffffff168152602001908152602001600020805461055f906111ac565b80601f016020809104026020016040519081016040528092919081815260200182805461058b906111ac565b80156105d85780601f106105ad576101008083540402835291602001916105d8565b820191906000526020600020905b8154815290600101906020018083116105bb57829003601f168201915b5050505050838281518110610616577f4e487b7100000000000000000000000000000000000000000000000000000000600052603260045260246000fd5b60200260200101819052506003600260006001600085815260200190815260200160002060009054906101000a900473ffffffffffffffffffffffffffffffffffffffff1673ffffffffffffffffffffffffffffffffffffffff1673ffffffffffffffffffffffffffffffffffffffff1681526020019081526020016000206040516106a29190610ee0565b9081526020016040518091039020548282815181106106ea577f4e487b7100000000000000000000000000000000000000000000000000000000600052603260045260246000fd5b60200260200101818152505080806107019061120f565b9150506102c4565b50828282955095509550505050909192565b33600160008054815260200190815260200160002060006101000a81548173ffffffffffffffffffffffffffffffffffffffff021916908373ffffffffffffffffffffffffffffffffffffffff16021790555080600260003373ffffffffffffffffffffffffffffffffffffffff1673ffffffffffffffffffffffffffffffffffffffff16815260200190815260200160002090805190602001906107c1929190610a2e565b50426003826040516107d39190610ec9565b9081526020016040518091039020819055506000808154809291906107f79061120f565b919050555050565b6003818051602081018201805184825260208301602085012081835280955050505050506000915090505481565b6002602052806000526040600020600091509050805461084c906111ac565b80601f0160208091040260200160405190810160405280929190818152602001828054610878906111ac565b80156108c55780601f1061089a576101008083540402835291602001916108c5565b820191906000526020600020905b8154815290600101906020018083116108a857829003601f168201915b505050505081565b610963816040516024016108e19190610f5e565b6040516020818303038152906040527f41304fac000000000000000000000000000000000000000000000000000000007bffffffffffffffffffffffffffffffffffffffffffffffffffffffff19166020820180517bffffffffffffffffffffffffffffffffffffffffffffffffffffffff8381831617835250505050610a05565b50565b610a0083838360405160240161097e93929190610f80565b6040516020818303038152906040527f95ed0195000000000000000000000000000000000000000000000000000000007bffffffffffffffffffffffffffffffffffffffffffffffffffffffff19166020820180517bffffffffffffffffffffffffffffffffffffffffffffffffffffffff8381831617835250505050610a05565b505050565b60008151905060006a636f6e736f6c652e6c6f679050602083016000808483855afa5050505050565b828054610a3a906111ac565b90600052602060002090601f016020900481019282610a5c5760008555610aa3565b82601f10610a7557805160ff1916838001178555610aa3565b82800160010185558215610aa3579182015b82811115610aa2578251825591602001919060010190610a87565b5b509050610ab09190610ab4565b5090565b5b80821115610acd576000816000905550600101610ab5565b5090565b6000610ae4610adf84611005565b610fe0565b905082815260208101848484011115610afc57600080fd5b610b0784828561116a565b509392505050565b600081359050610b1e816112f6565b92915050565b600082601f830112610b3557600080fd5b8135610b45848260208601610ad1565b91505092915050565b600081359050610b5d8161130d565b92915050565b600060208284031215610b7557600080fd5b6000610b8384828501610b0f565b91505092915050565b600060208284031215610b9e57600080fd5b600082013567ffffffffffffffff811115610bb857600080fd5b610bc484828501610b24565b91505092915050565b600060208284031215610bdf57600080fd5b6000610bed84828501610b4e565b91505092915050565b6000610c028383610c3a565b60208301905092915050565b6000610c1a8383610d89565b905092915050565b6000610c2e8383610eab565b60208301905092915050565b610c438161112e565b82525050565b610c528161112e565b82525050565b6000610c638261107b565b610c6d81856110ce565b9350610c7883611036565b8060005b83811015610ca9578151610c908882610bf6565b9750610c9b836110a7565b925050600181019050610c7c565b5085935050505092915050565b6000610cc182611086565b610ccb81856110df565b935083602082028501610cdd85611046565b8060005b85811015610d195784840389528151610cfa8582610c0e565b9450610d05836110b4565b925060208a01995050600181019050610ce1565b50829750879550505050505092915050565b6000610d3682611091565b610d4081856110f0565b9350610d4b83611056565b8060005b83811015610d7c578151610d638882610c22565b9750610d6e836110c1565b925050600181019050610d4f565b5085935050505092915050565b6000610d948261109c565b610d9e8185611101565b9350610dae818560208601611179565b610db7816112e5565b840191505092915050565b6000610dcd8261109c565b610dd78185611112565b9350610de7818560208601611179565b610df0816112e5565b840191505092915050565b6000610e068261109c565b610e108185611123565b9350610e20818560208601611179565b80840191505092915050565b60008154610e39816111ac565b610e438186611123565b94506001821660008114610e5e5760018114610e6f57610ea2565b60ff19831686528186019350610ea2565b610e7885611066565b60005b83811015610e9a57815481890152600182019150602081019050610e7b565b838801955050505b50505092915050565b610eb481611160565b82525050565b610ec381611160565b82525050565b6000610ed58284610dfb565b915081905092915050565b6000610eec8284610e2c565b915081905092915050565b6000602082019050610f0c6000830184610c49565b92915050565b60006060820190508181036000830152610f2c8186610c58565b90508181036020830152610f408185610cb6565b90508181036040830152610f548184610d2b565b9050949350505050565b60006020820190508181036000830152610f788184610dc2565b905092915050565b60006060820190508181036000830152610f9a8186610dc2565b90508181036020830152610fae8185610dc2565b9050610fbd6040830184610c49565b949350505050565b6000602082019050610fda6000830184610eba565b92915050565b6000610fea610ffb565b9050610ff682826111de565b919050565b6000604051905090565b600067ffffffffffffffff8211156110205761101f6112b6565b5b611029826112e5565b9050602081019050919050565b6000819050602082019050919050565b6000819050602082019050919050565b6000819050602082019050919050565b60008190508160005260206000209050919050565b600081519050919050565b600081519050919050565b600081519050919050565b600081519050919050565b6000602082019050919050565b6000602082019050919050565b6000602082019050919050565b600082825260208201905092915050565b600082825260208201905092915050565b600082825260208201905092915050565b600082825260208201905092915050565b600082825260208201905092915050565b600081905092915050565b600061113982611140565b9050919050565b600073ffffffffffffffffffffffffffffffffffffffff82169050919050565b6000819050919050565b82818337600083830152505050565b60005b8381101561119757808201518184015260208101905061117c565b838111156111a6576000848401525b50505050565b600060028204905060018216806111c457607f821691505b602082108114156111d8576111d7611287565b5b50919050565b6111e7826112e5565b810181811067ffffffffffffffff82111715611206576112056112b6565b5b80604052505050565b600061121a82611160565b91507fffffffffffffffffffffffffffffffffffffffffffffffffffffffffffffffff82141561124d5761124c611258565b5b600182019050919050565b7f4e487b7100000000000000000000000000000000000000000000000000000000600052601160045260246000fd5b7f4e487b7100000000000000000000000000000000000000000000000000000000600052602260045260246000fd5b7f4e487b7100000000000000000000000000000000000000000000000000000000600052604160045260246000fd5b6000601f19601f8301169050919050565b6112ff8161112e565b811461130a57600080fd5b50565b61131681611160565b811461132157600080fd5b5056fea26469706673582212209bd5bcf18aa86230a2fe9d0b6bbe36777c6bf2d3cd89ae7d6f30e3e6de0101b964736f6c63430008040033",
  "linkReferences": {},
  "deployedLinkReferences": {}
}