{
  "_format": "hh-sol-artifact-1",
  "contractName": "IndulgencePortal",
  "sourceName": "contracts/IndulgencePortal.sol",
  "abi": [
    {
      "inputs": [],
      "stateMutability": "nonpayable",
      "type": "constructor"
    },
    {
      "inputs": [],
      "name": "getAllSins",
      "outputs": [
        {
          "internalType": "address[]",
          "name": "sinner",
          "type": "address[]"
        },
        {
          "internalType": "string[]",
          "name": "message",
          "type": "string[]"
        },
        {
          "internalType": "uint256[]",
          "name": "timestamp",
          "type": "uint256[]"
        }
      ],
      "stateMutability": "view",
      "type": "function"
    },
    {
      "inputs": [
        {
          "internalType": "string",
          "name": "sin",
          "type": "string"
        }
      ],
      "name": "indulgeTheSin",
      "outputs": [],
      "stateMutability": "nonpayable",
      "type": "function"
    },
    {
      "inputs": [
        {
          "internalType": "uint256",
          "name": "",
          "type": "uint256"
        }
      ],
      "name": "sinners",
      "outputs": [
        {
          "internalType": "address",
          "name": "",
          "type": "address"
        }
      ],
      "stateMutability": "view",
      "type": "function"
    },
    {
      "inputs": [
        {
          "internalType": "address",
          "name": "",
          "type": "address"
        }
      ],
      "name": "sins",
      "outputs": [
        {
          "internalType": "string",
          "name": "",
          "type": "string"
        }
      ],
      "stateMutability": "view",
      "type": "function"
    },
    {
      "inputs": [
        {
          "internalType": "string",
          "name": "",
          "type": "string"
        }
      ],
      "name": "sinsTimestamps",
      "outputs": [
        {
          "internalType": "uint256",
          "name": "",
          "type": "uint256"
        }
      ],
      "stateMutability": "view",
      "type": "function"
    }
  ],
  "bytecode": "0x60806040523480156200001157600080fd5b506200005d6040518060400160405280601f81526020017f436f6d652062726f746865722c2074656c6c20757320796f75722073696e73008152506200006a60201b620008be1760201c565b60008081905550620001fe565b6200010a8160405160240162000081919062000177565b6040516020818303038152906040527f41304fac000000000000000000000000000000000000000000000000000000007bffffffffffffffffffffffffffffffffffffffffffffffffffffffff19166020820180517bffffffffffffffffffffffffffffffffffffffffffffffffffffffff83818316178352505050506200010d60201b60201c565b50565b60008151905060006a636f6e736f6c652e6c6f679050602083016000808483855afa5050505050565b600062000143826200019b565b6200014f8185620001a6565b935062000161818560208601620001b7565b6200016c81620001ed565b840191505092915050565b6000602082019050818103600083015262000193818462000136565b905092915050565b600081519050919050565b600082825260208201905092915050565b60005b83811015620001d7578082015181840152602081019050620001ba565b83811115620001e7576000848401525b50505050565b6000601f19601f8301169050919050565b61134b806200020e6000396000f3fe608060405234801561001057600080fd5b50600436106100575760003560e01c80634d2b02cd1461005c578063ab327c741461008c578063d10d97dd146100ac578063dc7797d7146100c8578063fff4fea2146100f8575b600080fd5b61007660048036038101906100719190610bbe565b610128565b6040516100839190610ee8565b60405180910390f35b61009461015b565b6040516100a393929190610f03565b60405180910390f35b6100c660048036038101906100c19190610b7d565b61070c565b005b6100e260048036038101906100dd9190610b7d565b6107f0565b6040516100ef9190610fb6565b60405180910390f35b610112600480360381019061010d9190610b54565b61081e565b60405161011f9190610f4f565b60405180910390f35b60016020528060005260406000206000915054906101000a900473ffffffffffffffffffffffffffffffffffffffff1681565b606080606060005467ffffffffffffffff8111156101a2577f4e487b7100000000000000000000000000000000000000000000000000000000600052604160045260246000fd5b6040519080825280602002602001820160405280156101d05781602001602082028036833780820191505090505b50925060005467ffffffffffffffff811115610215577f4e487b7100000000000000000000000000000000000000000000000000000000600052604160045260246000fd5b60405190808252806020026020018201604052801561024857816020015b60608152602001906001900390816102335790505b50915060005467ffffffffffffffff81111561028d577f4e487b7100000000000000000000000000000000000000000000000000000000600052604160045260246000fd5b6040519080825280602002602001820160405280156102bb5781602001602082028036833780820191505090505b50905060005b600054811015610706576104386040518060400160405280600b81526020017f25732066726f6d203a2573000000000000000000000000000000000000000000815250600260006001600086815260200190815260200160002060009054906101000a900473ffffffffffffffffffffffffffffffffffffffff1673ffffffffffffffffffffffffffffffffffffffff1673ffffffffffffffffffffffffffffffffffffffff16815260200190815260200160002080546103819061119d565b80601f01602080910402602001604051908101604052809291908181526020018280546103ad9061119d565b80156103fa5780601f106103cf576101008083540402835291602001916103fa565b820191906000526020600020905b8154815290600101906020018083116103dd57829003601f168201915b50505050506001600085815260200190815260200160002060009054906101000a900473ffffffffffffffffffffffffffffffffffffffff16610957565b6001600082815260200190815260200160002060009054906101000a900473ffffffffffffffffffffffffffffffffffffffff168482815181106104a5577f4e487b7100000000000000000000000000000000000000000000000000000000600052603260045260246000fd5b602002602001019073ffffffffffffffffffffffffffffffffffffffff16908173ffffffffffffffffffffffffffffffffffffffff1681525050600260006001600084815260200190815260200160002060009054906101000a900473ffffffffffffffffffffffffffffffffffffffff1673ffffffffffffffffffffffffffffffffffffffff1673ffffffffffffffffffffffffffffffffffffffff168152602001908152602001600020805461055c9061119d565b80601f01602080910402602001604051908101604052809291908181526020018280546105889061119d565b80156105d55780601f106105aa576101008083540402835291602001916105d5565b820191906000526020600020905b8154815290600101906020018083116105b857829003601f168201915b5050505050838281518110610613577f4e487b7100000000000000000000000000000000000000000000000000000000600052603260045260246000fd5b60200260200101819052506003600260006001600085815260200190815260200160002060009054906101000a900473ffffffffffffffffffffffffffffffffffffffff1673ffffffffffffffffffffffffffffffffffffffff1673ffffffffffffffffffffffffffffffffffffffff16815260200190815260200160002060405161069f9190610ed1565b9081526020016040518091039020548282815181106106e7577f4e487b7100000000000000000000000000000000000000000000000000000000600052603260045260246000fd5b60200260200101818152505080806106fe90611200565b9150506102c1565b50909192565b33600160008054815260200190815260200160002060006101000a81548173ffffffffffffffffffffffffffffffffffffffff021916908373ffffffffffffffffffffffffffffffffffffffff16021790555080600260003373ffffffffffffffffffffffffffffffffffffffff1673ffffffffffffffffffffffffffffffffffffffff16815260200190815260200160002090805190602001906107b2929190610a1f565b50426003826040516107c49190610eba565b9081526020016040518091039020819055506000808154809291906107e890611200565b919050555050565b6003818051602081018201805184825260208301602085012081835280955050505050506000915090505481565b6002602052806000526040600020600091509050805461083d9061119d565b80601f01602080910402602001604051908101604052809291908181526020018280546108699061119d565b80156108b65780601f1061088b576101008083540402835291602001916108b6565b820191906000526020600020905b81548152906001019060200180831161089957829003601f168201915b505050505081565b610954816040516024016108d29190610f4f565b6040516020818303038152906040527f41304fac000000000000000000000000000000000000000000000000000000007bffffffffffffffffffffffffffffffffffffffffffffffffffffffff19166020820180517bffffffffffffffffffffffffffffffffffffffffffffffffffffffff83818316178352505050506109f6565b50565b6109f183838360405160240161096f93929190610f71565b6040516020818303038152906040527f95ed0195000000000000000000000000000000000000000000000000000000007bffffffffffffffffffffffffffffffffffffffffffffffffffffffff19166020820180517bffffffffffffffffffffffffffffffffffffffffffffffffffffffff83818316178352505050506109f6565b505050565b60008151905060006a636f6e736f6c652e6c6f679050602083016000808483855afa5050505050565b828054610a2b9061119d565b90600052602060002090601f016020900481019282610a4d5760008555610a94565b82601f10610a6657805160ff1916838001178555610a94565b82800160010185558215610a94579182015b82811115610a93578251825591602001919060010190610a78565b5b509050610aa19190610aa5565b5090565b5b80821115610abe576000816000905550600101610aa6565b5090565b6000610ad5610ad084610ff6565b610fd1565b905082815260208101848484011115610aed57600080fd5b610af884828561115b565b509392505050565b600081359050610b0f816112e7565b92915050565b600082601f830112610b2657600080fd5b8135610b36848260208601610ac2565b91505092915050565b600081359050610b4e816112fe565b92915050565b600060208284031215610b6657600080fd5b6000610b7484828501610b00565b91505092915050565b600060208284031215610b8f57600080fd5b600082013567ffffffffffffffff811115610ba957600080fd5b610bb584828501610b15565b91505092915050565b600060208284031215610bd057600080fd5b6000610bde84828501610b3f565b91505092915050565b6000610bf38383610c2b565b60208301905092915050565b6000610c0b8383610d7a565b905092915050565b6000610c1f8383610e9c565b60208301905092915050565b610c348161111f565b82525050565b610c438161111f565b82525050565b6000610c548261106c565b610c5e81856110bf565b9350610c6983611027565b8060005b83811015610c9a578151610c818882610be7565b9750610c8c83611098565b925050600181019050610c6d565b5085935050505092915050565b6000610cb282611077565b610cbc81856110d0565b935083602082028501610cce85611037565b8060005b85811015610d0a5784840389528151610ceb8582610bff565b9450610cf6836110a5565b925060208a01995050600181019050610cd2565b50829750879550505050505092915050565b6000610d2782611082565b610d3181856110e1565b9350610d3c83611047565b8060005b83811015610d6d578151610d548882610c13565b9750610d5f836110b2565b925050600181019050610d40565b5085935050505092915050565b6000610d858261108d565b610d8f81856110f2565b9350610d9f81856020860161116a565b610da8816112d6565b840191505092915050565b6000610dbe8261108d565b610dc88185611103565b9350610dd881856020860161116a565b610de1816112d6565b840191505092915050565b6000610df78261108d565b610e018185611114565b9350610e1181856020860161116a565b80840191505092915050565b60008154610e2a8161119d565b610e348186611114565b94506001821660008114610e4f5760018114610e6057610e93565b60ff19831686528186019350610e93565b610e6985611057565b60005b83811015610e8b57815481890152600182019150602081019050610e6c565b838801955050505b50505092915050565b610ea581611151565b82525050565b610eb481611151565b82525050565b6000610ec68284610dec565b915081905092915050565b6000610edd8284610e1d565b915081905092915050565b6000602082019050610efd6000830184610c3a565b92915050565b60006060820190508181036000830152610f1d8186610c49565b90508181036020830152610f318185610ca7565b90508181036040830152610f458184610d1c565b9050949350505050565b60006020820190508181036000830152610f698184610db3565b905092915050565b60006060820190508181036000830152610f8b8186610db3565b90508181036020830152610f9f8185610db3565b9050610fae6040830184610c3a565b949350505050565b6000602082019050610fcb6000830184610eab565b92915050565b6000610fdb610fec565b9050610fe782826111cf565b919050565b6000604051905090565b600067ffffffffffffffff821115611011576110106112a7565b5b61101a826112d6565b9050602081019050919050565b6000819050602082019050919050565b6000819050602082019050919050565b6000819050602082019050919050565b60008190508160005260206000209050919050565b600081519050919050565b600081519050919050565b600081519050919050565b600081519050919050565b6000602082019050919050565b6000602082019050919050565b6000602082019050919050565b600082825260208201905092915050565b600082825260208201905092915050565b600082825260208201905092915050565b600082825260208201905092915050565b600082825260208201905092915050565b600081905092915050565b600061112a82611131565b9050919050565b600073ffffffffffffffffffffffffffffffffffffffff82169050919050565b6000819050919050565b82818337600083830152505050565b60005b8381101561118857808201518184015260208101905061116d565b83811115611197576000848401525b50505050565b600060028204905060018216806111b557607f821691505b602082108114156111c9576111c8611278565b5b50919050565b6111d8826112d6565b810181811067ffffffffffffffff821117156111f7576111f66112a7565b5b80604052505050565b600061120b82611151565b91507fffffffffffffffffffffffffffffffffffffffffffffffffffffffffffffffff82141561123e5761123d611249565b5b600182019050919050565b7f4e487b7100000000000000000000000000000000000000000000000000000000600052601160045260246000fd5b7f4e487b7100000000000000000000000000000000000000000000000000000000600052602260045260246000fd5b7f4e487b7100000000000000000000000000000000000000000000000000000000600052604160045260246000fd5b6000601f19601f8301169050919050565b6112f08161111f565b81146112fb57600080fd5b50565b61130781611151565b811461131257600080fd5b5056fea264697066735822122096f1f81353b0f607a1f96b2f15bd03a283173c4ceb6421460247ee363f161e6964736f6c63430008040033",
  "linkReferences": {},
  "deployedLinkReferences": {}
}